{
	"abi": [
		{
			"type": "constructor",
			"inputs": [
				{
					"name": "minter",
					"type": "address",
					"internalType": "address"
				}
			],
			"stateMutability": "nonpayable"
		},
		{
			"type": "function",
			"name": "CLOCK_MODE",
			"inputs": [],
			"outputs": [
				{
					"name": "",
					"type": "string",
					"internalType": "string"
				}
			],
			"stateMutability": "view"
		},
		{
			"type": "function",
			"name": "DEFAULT_ADMIN_ROLE",
			"inputs": [],
			"outputs": [
				{
					"name": "",
					"type": "bytes32",
					"internalType": "bytes32"
				}
			],
			"stateMutability": "view"
		},
		{
			"type": "function",
			"name": "MINTER_ROLE",
			"inputs": [],
			"outputs": [
				{
					"name": "",
					"type": "bytes32",
					"internalType": "bytes32"
				}
			],
			"stateMutability": "view"
		},
		{
			"type": "function",
			"name": "approve",
			"inputs": [
				{
					"name": "to",
					"type": "address",
					"internalType": "address"
				},
				{
					"name": "tokenId",
					"type": "uint256",
					"internalType": "uint256"
				}
			],
			"outputs": [],
			"stateMutability": "nonpayable"
		},
		{
			"type": "function",
			"name": "balanceOf",
			"inputs": [
				{
					"name": "owner",
					"type": "address",
					"internalType": "address"
				}
			],
			"outputs": [
				{
					"name": "",
					"type": "uint256",
					"internalType": "uint256"
				}
			],
			"stateMutability": "view"
		},
		{
			"type": "function",
			"name": "burn",
			"inputs": [
				{
					"name": "tokenId",
					"type": "uint256",
					"internalType": "uint256"
				}
			],
			"outputs": [],
			"stateMutability": "nonpayable"
		},
		{
			"type": "function",
			"name": "clock",
			"inputs": [],
			"outputs": [
				{
					"name": "",
					"type": "uint48",
					"internalType": "uint48"
				}
			],
			"stateMutability": "view"
		},
		{
			"type": "function",
			"name": "delegate",
			"inputs": [
				{
					"name": "delegatee",
					"type": "address",
					"internalType": "address"
				}
			],
			"outputs": [],
			"stateMutability": "nonpayable"
		},
		{
			"type": "function",
			"name": "delegateBySig",
			"inputs": [
				{
					"name": "delegatee",
					"type": "address",
					"internalType": "address"
				},
				{
					"name": "nonce",
					"type": "uint256",
					"internalType": "uint256"
				},
				{
					"name": "expiry",
					"type": "uint256",
					"internalType": "uint256"
				},
				{
					"name": "v",
					"type": "uint8",
					"internalType": "uint8"
				},
				{
					"name": "r",
					"type": "bytes32",
					"internalType": "bytes32"
				},
				{
					"name": "s",
					"type": "bytes32",
					"internalType": "bytes32"
				}
			],
			"outputs": [],
			"stateMutability": "nonpayable"
		},
		{
			"type": "function",
			"name": "delegates",
			"inputs": [
				{
					"name": "account",
					"type": "address",
					"internalType": "address"
				}
			],
			"outputs": [
				{
					"name": "",
					"type": "address",
					"internalType": "address"
				}
			],
			"stateMutability": "view"
		},
		{
			"type": "function",
			"name": "eip712Domain",
			"inputs": [],
			"outputs": [
				{
					"name": "fields",
					"type": "bytes1",
					"internalType": "bytes1"
				},
				{
					"name": "name",
					"type": "string",
					"internalType": "string"
				},
				{
					"name": "version",
					"type": "string",
					"internalType": "string"
				},
				{
					"name": "chainId",
					"type": "uint256",
					"internalType": "uint256"
				},
				{
					"name": "verifyingContract",
					"type": "address",
					"internalType": "address"
				},
				{
					"name": "salt",
					"type": "bytes32",
					"internalType": "bytes32"
				},
				{
					"name": "extensions",
					"type": "uint256[]",
					"internalType": "uint256[]"
				}
			],
			"stateMutability": "view"
		},
		{
			"type": "function",
			"name": "getApproved",
			"inputs": [
				{
					"name": "tokenId",
					"type": "uint256",
					"internalType": "uint256"
				}
			],
			"outputs": [
				{
					"name": "",
					"type": "address",
					"internalType": "address"
				}
			],
			"stateMutability": "view"
		},
		{
			"type": "function",
			"name": "getPastTotalSupply",
			"inputs": [
				{
					"name": "timepoint",
					"type": "uint256",
					"internalType": "uint256"
				}
			],
			"outputs": [
				{
					"name": "",
					"type": "uint256",
					"internalType": "uint256"
				}
			],
			"stateMutability": "view"
		},
		{
			"type": "function",
			"name": "getPastVotes",
			"inputs": [
				{
					"name": "account",
					"type": "address",
					"internalType": "address"
				},
				{
					"name": "timepoint",
					"type": "uint256",
					"internalType": "uint256"
				}
			],
			"outputs": [
				{
					"name": "",
					"type": "uint256",
					"internalType": "uint256"
				}
			],
			"stateMutability": "view"
		},
		{
			"type": "function",
			"name": "getRoleAdmin",
			"inputs": [
				{
					"name": "role",
					"type": "bytes32",
					"internalType": "bytes32"
				}
			],
			"outputs": [
				{
					"name": "",
					"type": "bytes32",
					"internalType": "bytes32"
				}
			],
			"stateMutability": "view"
		},
		{
			"type": "function",
			"name": "getVotes",
			"inputs": [
				{
					"name": "account",
					"type": "address",
					"internalType": "address"
				}
			],
			"outputs": [
				{
					"name": "",
					"type": "uint256",
					"internalType": "uint256"
				}
			],
			"stateMutability": "view"
		},
		{
			"type": "function",
			"name": "grantRole",
			"inputs": [
				{
					"name": "role",
					"type": "bytes32",
					"internalType": "bytes32"
				},
				{
					"name": "account",
					"type": "address",
					"internalType": "address"
				}
			],
			"outputs": [],
			"stateMutability": "nonpayable"
		},
		{
			"type": "function",
			"name": "hasRole",
			"inputs": [
				{
					"name": "role",
					"type": "bytes32",
					"internalType": "bytes32"
				},
				{
					"name": "account",
					"type": "address",
					"internalType": "address"
				}
			],
			"outputs": [
				{
					"name": "",
					"type": "bool",
					"internalType": "bool"
				}
			],
			"stateMutability": "view"
		},
		{
			"type": "function",
			"name": "isApprovedForAll",
			"inputs": [
				{
					"name": "owner",
					"type": "address",
					"internalType": "address"
				},
				{
					"name": "operator",
					"type": "address",
					"internalType": "address"
				}
			],
			"outputs": [
				{
					"name": "",
					"type": "bool",
					"internalType": "bool"
				}
			],
			"stateMutability": "view"
		},
		{
			"type": "function",
			"name": "name",
			"inputs": [],
			"outputs": [
				{
					"name": "",
					"type": "string",
					"internalType": "string"
				}
			],
			"stateMutability": "view"
		},
		{
			"type": "function",
			"name": "nonces",
			"inputs": [
				{
					"name": "owner",
					"type": "address",
					"internalType": "address"
				}
			],
			"outputs": [
				{
					"name": "",
					"type": "uint256",
					"internalType": "uint256"
				}
			],
			"stateMutability": "view"
		},
		{
			"type": "function",
			"name": "ownerOf",
			"inputs": [
				{
					"name": "tokenId",
					"type": "uint256",
					"internalType": "uint256"
				}
			],
			"outputs": [
				{
					"name": "",
					"type": "address",
					"internalType": "address"
				}
			],
			"stateMutability": "view"
		},
		{
			"type": "function",
			"name": "renounceRole",
			"inputs": [
				{
					"name": "role",
					"type": "bytes32",
					"internalType": "bytes32"
				},
				{
					"name": "callerConfirmation",
					"type": "address",
					"internalType": "address"
				}
			],
			"outputs": [],
			"stateMutability": "nonpayable"
		},
		{
			"type": "function",
			"name": "revokeRole",
			"inputs": [
				{
					"name": "role",
					"type": "bytes32",
					"internalType": "bytes32"
				},
				{
					"name": "account",
					"type": "address",
					"internalType": "address"
				}
			],
			"outputs": [],
			"stateMutability": "nonpayable"
		},
		{
			"type": "function",
			"name": "safeMint",
			"inputs": [
				{
					"name": "to",
					"type": "address",
					"internalType": "address"
				},
				{
					"name": "tokenId",
					"type": "uint256",
					"internalType": "uint256"
				}
			],
			"outputs": [],
			"stateMutability": "nonpayable"
		},
		{
			"type": "function",
			"name": "safeTransferFrom",
			"inputs": [
				{
					"name": "from",
					"type": "address",
					"internalType": "address"
				},
				{
					"name": "to",
					"type": "address",
					"internalType": "address"
				},
				{
					"name": "tokenId",
					"type": "uint256",
					"internalType": "uint256"
				}
			],
			"outputs": [],
			"stateMutability": "nonpayable"
		},
		{
			"type": "function",
			"name": "safeTransferFrom",
			"inputs": [
				{
					"name": "from",
					"type": "address",
					"internalType": "address"
				},
				{
					"name": "to",
					"type": "address",
					"internalType": "address"
				},
				{
					"name": "tokenId",
					"type": "uint256",
					"internalType": "uint256"
				},
				{
					"name": "data",
					"type": "bytes",
					"internalType": "bytes"
				}
			],
			"outputs": [],
			"stateMutability": "nonpayable"
		},
		{
			"type": "function",
			"name": "setApprovalForAll",
			"inputs": [
				{
					"name": "operator",
					"type": "address",
					"internalType": "address"
				},
				{
					"name": "approved",
					"type": "bool",
					"internalType": "bool"
				}
			],
			"outputs": [],
			"stateMutability": "nonpayable"
		},
		{
			"type": "function",
			"name": "supportsInterface",
			"inputs": [
				{
					"name": "interfaceId",
					"type": "bytes4",
					"internalType": "bytes4"
				}
			],
			"outputs": [
				{
					"name": "",
					"type": "bool",
					"internalType": "bool"
				}
			],
			"stateMutability": "view"
		},
		{
			"type": "function",
			"name": "symbol",
			"inputs": [],
			"outputs": [
				{
					"name": "",
					"type": "string",
					"internalType": "string"
				}
			],
			"stateMutability": "view"
		},
		{
			"type": "function",
			"name": "tokenURI",
			"inputs": [
				{
					"name": "tokenId",
					"type": "uint256",
					"internalType": "uint256"
				}
			],
			"outputs": [
				{
					"name": "",
					"type": "string",
					"internalType": "string"
				}
			],
			"stateMutability": "view"
		},
		{
			"type": "function",
			"name": "transferFrom",
			"inputs": [
				{
					"name": "from",
					"type": "address",
					"internalType": "address"
				},
				{
					"name": "to",
					"type": "address",
					"internalType": "address"
				},
				{
					"name": "tokenId",
					"type": "uint256",
					"internalType": "uint256"
				}
			],
			"outputs": [],
			"stateMutability": "nonpayable"
		},
		{
			"type": "event",
			"name": "Approval",
			"inputs": [
				{
					"name": "owner",
					"type": "address",
					"indexed": true,
					"internalType": "address"
				},
				{
					"name": "approved",
					"type": "address",
					"indexed": true,
					"internalType": "address"
				},
				{
					"name": "tokenId",
					"type": "uint256",
					"indexed": true,
					"internalType": "uint256"
				}
			],
			"anonymous": false
		},
		{
			"type": "event",
			"name": "ApprovalForAll",
			"inputs": [
				{
					"name": "owner",
					"type": "address",
					"indexed": true,
					"internalType": "address"
				},
				{
					"name": "operator",
					"type": "address",
					"indexed": true,
					"internalType": "address"
				},
				{
					"name": "approved",
					"type": "bool",
					"indexed": false,
					"internalType": "bool"
				}
			],
			"anonymous": false
		},
		{
			"type": "event",
			"name": "DelegateChanged",
			"inputs": [
				{
					"name": "delegator",
					"type": "address",
					"indexed": true,
					"internalType": "address"
				},
				{
					"name": "fromDelegate",
					"type": "address",
					"indexed": true,
					"internalType": "address"
				},
				{
					"name": "toDelegate",
					"type": "address",
					"indexed": true,
					"internalType": "address"
				}
			],
			"anonymous": false
		},
		{
			"type": "event",
			"name": "DelegateVotesChanged",
			"inputs": [
				{
					"name": "delegate",
					"type": "address",
					"indexed": true,
					"internalType": "address"
				},
				{
					"name": "previousVotes",
					"type": "uint256",
					"indexed": false,
					"internalType": "uint256"
				},
				{
					"name": "newVotes",
					"type": "uint256",
					"indexed": false,
					"internalType": "uint256"
				}
			],
			"anonymous": false
		},
		{
			"type": "event",
			"name": "EIP712DomainChanged",
			"inputs": [],
			"anonymous": false
		},
		{
			"type": "event",
			"name": "RoleAdminChanged",
			"inputs": [
				{
					"name": "role",
					"type": "bytes32",
					"indexed": true,
					"internalType": "bytes32"
				},
				{
					"name": "previousAdminRole",
					"type": "bytes32",
					"indexed": true,
					"internalType": "bytes32"
				},
				{
					"name": "newAdminRole",
					"type": "bytes32",
					"indexed": true,
					"internalType": "bytes32"
				}
			],
			"anonymous": false
		},
		{
			"type": "event",
			"name": "RoleGranted",
			"inputs": [
				{
					"name": "role",
					"type": "bytes32",
					"indexed": true,
					"internalType": "bytes32"
				},
				{
					"name": "account",
					"type": "address",
					"indexed": true,
					"internalType": "address"
				},
				{
					"name": "sender",
					"type": "address",
					"indexed": true,
					"internalType": "address"
				}
			],
			"anonymous": false
		},
		{
			"type": "event",
			"name": "RoleRevoked",
			"inputs": [
				{
					"name": "role",
					"type": "bytes32",
					"indexed": true,
					"internalType": "bytes32"
				},
				{
					"name": "account",
					"type": "address",
					"indexed": true,
					"internalType": "address"
				},
				{
					"name": "sender",
					"type": "address",
					"indexed": true,
					"internalType": "address"
				}
			],
			"anonymous": false
		},
		{
			"type": "event",
			"name": "Transfer",
			"inputs": [
				{
					"name": "from",
					"type": "address",
					"indexed": true,
					"internalType": "address"
				},
				{
					"name": "to",
					"type": "address",
					"indexed": true,
					"internalType": "address"
				},
				{
					"name": "tokenId",
					"type": "uint256",
					"indexed": true,
					"internalType": "uint256"
				}
			],
			"anonymous": false
		},
		{
			"type": "error",
			"name": "AccessControlBadConfirmation",
			"inputs": []
		},
		{
			"type": "error",
			"name": "AccessControlUnauthorizedAccount",
			"inputs": [
				{
					"name": "account",
					"type": "address",
					"internalType": "address"
				},
				{
					"name": "neededRole",
					"type": "bytes32",
					"internalType": "bytes32"
				}
			]
		},
		{
			"type": "error",
			"name": "CheckpointUnorderedInsertion",
			"inputs": []
		},
		{
			"type": "error",
			"name": "ECDSAInvalidSignature",
			"inputs": []
		},
		{
			"type": "error",
			"name": "ECDSAInvalidSignatureLength",
			"inputs": [
				{
					"name": "length",
					"type": "uint256",
					"internalType": "uint256"
				}
			]
		},
		{
			"type": "error",
			"name": "ECDSAInvalidSignatureS",
			"inputs": [
				{
					"name": "s",
					"type": "bytes32",
					"internalType": "bytes32"
				}
			]
		},
		{
			"type": "error",
			"name": "ERC5805FutureLookup",
			"inputs": [
				{
					"name": "timepoint",
					"type": "uint256",
					"internalType": "uint256"
				},
				{
					"name": "clock",
					"type": "uint48",
					"internalType": "uint48"
				}
			]
		},
		{
			"type": "error",
			"name": "ERC6372InconsistentClock",
			"inputs": []
		},
		{
			"type": "error",
			"name": "ERC721IncorrectOwner",
			"inputs": [
				{
					"name": "sender",
					"type": "address",
					"internalType": "address"
				},
				{
					"name": "tokenId",
					"type": "uint256",
					"internalType": "uint256"
				},
				{
					"name": "owner",
					"type": "address",
					"internalType": "address"
				}
			]
		},
		{
			"type": "error",
			"name": "ERC721InsufficientApproval",
			"inputs": [
				{
					"name": "operator",
					"type": "address",
					"internalType": "address"
				},
				{
					"name": "tokenId",
					"type": "uint256",
					"internalType": "uint256"
				}
			]
		},
		{
			"type": "error",
			"name": "ERC721InvalidApprover",
			"inputs": [
				{
					"name": "approver",
					"type": "address",
					"internalType": "address"
				}
			]
		},
		{
			"type": "error",
			"name": "ERC721InvalidOperator",
			"inputs": [
				{
					"name": "operator",
					"type": "address",
					"internalType": "address"
				}
			]
		},
		{
			"type": "error",
			"name": "ERC721InvalidOwner",
			"inputs": [
				{
					"name": "owner",
					"type": "address",
					"internalType": "address"
				}
			]
		},
		{
			"type": "error",
			"name": "ERC721InvalidReceiver",
			"inputs": [
				{
					"name": "receiver",
					"type": "address",
					"internalType": "address"
				}
			]
		},
		{
			"type": "error",
			"name": "ERC721InvalidSender",
			"inputs": [
				{
					"name": "sender",
					"type": "address",
					"internalType": "address"
				}
			]
		},
		{
			"type": "error",
			"name": "ERC721NonexistentToken",
			"inputs": [
				{
					"name": "tokenId",
					"type": "uint256",
					"internalType": "uint256"
				}
			]
		},
		{
			"type": "error",
			"name": "InvalidAccountNonce",
			"inputs": [
				{
					"name": "account",
					"type": "address",
					"internalType": "address"
				},
				{
					"name": "currentNonce",
					"type": "uint256",
					"internalType": "uint256"
				}
			]
		},
		{
			"type": "error",
			"name": "InvalidShortString",
			"inputs": []
		},
		{
			"type": "error",
			"name": "SafeCastOverflowedUintDowncast",
			"inputs": [
				{
					"name": "bits",
					"type": "uint8",
					"internalType": "uint8"
				},
				{
					"name": "value",
					"type": "uint256",
					"internalType": "uint256"
				}
			]
		},
		{
			"type": "error",
			"name": "StringTooLong",
			"inputs": [
				{
					"name": "str",
					"type": "string",
					"internalType": "string"
				}
			]
		},
		{
			"type": "error",
			"name": "VotesExpiredSignature",
			"inputs": [
				{
					"name": "expiry",
					"type": "uint256",
					"internalType": "uint256"
				}
			]
		}
	],
	"bytecode": {
		"object": "0x6101606040523480156200001257600080fd5b5060405162002b3d38038062002b3d8339810160408190526200003591620002e6565b6040805180820182526008808252674d6942617272696f60c01b60208084018290528451808601865260018152603160f81b8183015285518087018752938452838201929092528451808601909552600485526326a120a960e11b9085015291926000620000a48382620003bd565b506001620000b38282620003bd565b50620000c591508390506007620001af565b61012052620000d6816008620001af565b61014052815160208084019190912060e052815190820120610100524660a0526200016460e05161010051604080517f8b73c3c69bb8fe3d512ecc4cf759cc79239f7b179b0ffacaa9a75d522b39400f60208201529081019290925260608201524660808201523060a082015260009060c00160405160208183030381529060405280519060200120905090565b60805250503060c0526200017a600033620001e8565b50620001a77f9f2df0fed2c77648de5860a4cc508cd0818c85b8b8a1ab4ceeef8d981c8956a682620001e8565b5050620004fe565b6000602083511015620001cf57620001c7836200029a565b9050620001e2565b81620001dc8482620003bd565b5060ff90505b92915050565b60008281526006602090815260408083206001600160a01b038516845290915281205460ff16620002915760008381526006602090815260408083206001600160a01b03861684529091529020805460ff19166001179055620002483390565b6001600160a01b0316826001600160a01b0316847f2f8788117e7eff1d82e926ec794901d17c78024a50270940304540a733656f0d60405160405180910390a4506001620001e2565b506000620001e2565b600080829050601f81511115620002d1578260405163305a27a960e01b8152600401620002c8919062000489565b60405180910390fd5b8051620002de82620004d9565b179392505050565b600060208284031215620002f957600080fd5b81516001600160a01b03811681146200031157600080fd5b9392505050565b634e487b7160e01b600052604160045260246000fd5b600181811c908216806200034357607f821691505b6020821081036200036457634e487b7160e01b600052602260045260246000fd5b50919050565b601f821115620003b857600081815260208120601f850160051c81016020861015620003935750805b601f850160051c820191505b81811015620003b4578281556001016200039f565b5050505b505050565b81516001600160401b03811115620003d957620003d962000318565b620003f181620003ea84546200032e565b846200036a565b602080601f831160018114620004295760008415620004105750858301515b600019600386901b1c1916600185901b178555620003b4565b600085815260208120601f198616915b828110156200045a5788860151825594840194600190910190840162000439565b5085821015620004795787850151600019600388901b60f8161c191681555b5050505050600190811b01905550565b600060208083528351808285015260005b81811015620004b8578581018301518582016040015282016200049a565b506000604082860101526040601f19601f8301168501019250505092915050565b80516020808301519190811015620003645760001960209190910360031b1b16919050565b60805160a05160c05160e0516101005161012051610140516125e4620005596000396000610e5101526000610e24015260006117de015260006117b6015260006117110152600061173b0152600061176501526125e46000f3fe608060405234801561001057600080fd5b50600436106101f05760003560e01c80637ecebe001161010f578063a217fddf116100a2578063c87b56dd11610071578063c87b56dd1461047a578063d53913931461048d578063d547741f146104b4578063e985e9c5146104c757600080fd5b8063a217fddf14610439578063a22cb46514610441578063b88d4fde14610454578063c3cda5201461046757600080fd5b806391ddadf4116100de57806391ddadf4146103ec57806395d89b411461040b5780639ab24eb014610413578063a14481941461042657600080fd5b80637ecebe001461038257806384b0196e146103ab5780638e539e8c146103c657806391d14854146103d957600080fd5b80633a46b1a811610187578063587cde1e11610156578063587cde1e1461031d5780635c19a95c146103495780636352211e1461035c57806370a082311461036f57600080fd5b80633a46b1a8146102dc57806342842e0e146102ef57806342966c68146103025780634bf5d7e91461031557600080fd5b806323b872dd116101c357806323b872dd14610272578063248a9ca3146102855780632f2ff15d146102b657806336568abe146102c957600080fd5b806301ffc9a7146101f557806306fdde031461021d578063081812fc14610232578063095ea7b31461025d575b600080fd5b61020861020336600461206a565b6104da565b60405190151581526020015b60405180910390f35b6102256104eb565b60405161021491906120d7565b6102456102403660046120ea565b61057d565b6040516001600160a01b039091168152602001610214565b61027061026b36600461211f565b6105a6565b005b610270610280366004612149565b6105b5565b6102a86102933660046120ea565b60009081526006602052604090206001015490565b604051908152602001610214565b6102706102c4366004612185565b610645565b6102706102d7366004612185565b61066a565b6102a86102ea36600461211f565b6106a2565b6102706102fd366004612149565b610723565b6102706103103660046120ea565b61073e565b61022561074a565b61024561032b3660046121b1565b6001600160a01b039081166000908152600a60205260409020541690565b6102706103573660046121b1565b6107c2565b61024561036a3660046120ea565b6107cd565b6102a861037d3660046121b1565b6107d8565b6102a86103903660046121b1565b6001600160a01b031660009081526009602052604090205490565b6103b3610820565b60405161021497969594939291906121cc565b6102a86103d43660046120ea565b610866565b6102086103e7366004612185565b6108d0565b6103f46108fb565b60405165ffffffffffff9091168152602001610214565b61022561090a565b6102a86104213660046121b1565b610919565b61027061043436600461211f565b610949565b6102a8600081565b61027061044f366004612262565b61097d565b6102706104623660046122b4565b610988565b610270610475366004612390565b6109a0565b6102256104883660046120ea565b610a5d565b6102a87f9f2df0fed2c77648de5860a4cc508cd0818c85b8b8a1ab4ceeef8d981c8956a681565b6102706104c2366004612185565b610ad2565b6102086104d53660046123f0565b610af7565b60006104e582610b25565b92915050565b6060600080546104fa9061241a565b80601f01602080910402602001604051908101604052809291908181526020018280546105269061241a565b80156105735780601f1061054857610100808354040283529160200191610573565b820191906000526020600020905b81548152906001019060200180831161055657829003601f168201915b5050505050905090565b600061058882610b4a565b506000828152600460205260409020546001600160a01b03166104e5565b6105b1828233610b83565b5050565b6001600160a01b0382166105e457604051633250574960e11b8152600060048201526024015b60405180910390fd5b60006105f1838333610b90565b9050836001600160a01b0316816001600160a01b03161461063f576040516364283d7b60e01b81526001600160a01b03808616600483015260248201849052821660448201526064016105db565b50505050565b60008281526006602052604090206001015461066081610ba5565b61063f8383610bb2565b6001600160a01b03811633146106935760405163334bd91960e11b815260040160405180910390fd5b61069d8282610c46565b505050565b6000806106ad6108fb565b90508065ffffffffffff1683106106e857604051637669fc0f60e11b81526004810184905265ffffffffffff821660248201526044016105db565b6107126106f484610cb3565b6001600160a01b0386166000908152600b6020526040902090610cea565b6001600160d01b0316949350505050565b61069d83838360405180602001604052806000815250610988565b6105b160008233610b90565b6060610754610da0565b65ffffffffffff166107646108fb565b65ffffffffffff161461078a576040516301bfc1c560e61b815260040160405180910390fd5b5060408051808201909152601d81527f6d6f64653d626c6f636b6e756d6265722666726f6d3d64656661756c74000000602082015290565b336105b18183610dab565b60006104e582610b4a565b60006001600160a01b038216610804576040516322718ad960e21b8152600060048201526024016105db565b506001600160a01b031660009081526003602052604090205490565b600060608060008060006060610834610e1d565b61083c610e4a565b60408051600080825260208201909252600f60f81b9b939a50919850469750309650945092509050565b6000806108716108fb565b90508065ffffffffffff1683106108ac57604051637669fc0f60e11b81526004810184905265ffffffffffff821660248201526044016105db565b6108c06108b884610cb3565b600c90610cea565b6001600160d01b03169392505050565b60009182526006602090815260408084206001600160a01b0393909316845291905290205460ff1690565b6000610905610da0565b905090565b6060600180546104fa9061241a565b6001600160a01b0381166000908152600b6020526040812061093a90610e77565b6001600160d01b031692915050565b7f9f2df0fed2c77648de5860a4cc508cd0818c85b8b8a1ab4ceeef8d981c8956a661097381610ba5565b61069d8383610eb0565b6105b1338383610eca565b6109938484846105b5565b61063f3385858585610f69565b834211156109c457604051632341d78760e11b8152600481018590526024016105db565b604080517fe48329057bfd03d55e49b547132e39cffd9c1820ad7b9d4c5307691425d15adf60208201526001600160a01b038816918101919091526060810186905260808101859052600090610a3e90610a369060a00160405160208183030381529060405280519060200120611094565b8585856110c1565b9050610a4a81876110ef565b610a548188610dab565b50505050505050565b6060610a6882610b4a565b506000610a8060408051602081019091526000815290565b90506000815111610aa05760405180602001604052806000815250610acb565b80610aaa84611142565b604051602001610abb929190612454565b6040516020818303038152906040525b9392505050565b600082815260066020526040902060010154610aed81610ba5565b61063f8383610c46565b6001600160a01b03918216600090815260056020908152604080832093909416825291909152205460ff1690565b60006001600160e01b03198216637965db0b60e01b14806104e557506104e5826111d5565b6000818152600260205260408120546001600160a01b0316806104e557604051637e27328960e01b8152600481018490526024016105db565b61069d8383836001611225565b6000610b9d84848461132b565b949350505050565b610baf8133611347565b50565b6000610bbe83836108d0565b610c3e5760008381526006602090815260408083206001600160a01b03861684529091529020805460ff19166001179055610bf63390565b6001600160a01b0316826001600160a01b0316847f2f8788117e7eff1d82e926ec794901d17c78024a50270940304540a733656f0d60405160405180910390a45060016104e5565b5060006104e5565b6000610c5283836108d0565b15610c3e5760008381526006602090815260408083206001600160a01b0386168085529252808320805460ff1916905551339286917ff6391f5c32d9c69d2a47ea670b442974b53935d1edc7fd64eb21e047a839171b9190a45060016104e5565b600065ffffffffffff821115610ce6576040516306dfcc6560e41b815260306004820152602481018390526044016105db565b5090565b815460009081816005811115610d49576000610d0584611380565b610d0f9085612499565b60008881526020902090915081015465ffffffffffff9081169087161015610d3957809150610d47565b610d448160016124ac565b92505b505b6000610d5787878585611468565b90508015610d9257610d7c87610d6e600184612499565b600091825260209091200190565b54600160301b90046001600160d01b0316610d95565b60005b979650505050505050565b600061090543610cb3565b6001600160a01b038281166000818152600a602052604080822080548686166001600160a01b0319821681179092559151919094169392849290917f3134e8a2e6d97e929a7e54011ea5485d7d196dd5f0ba4d4ef95803e8e3fc257f9190a461069d8183610e18866114ca565b6114d5565b60606109057f00000000000000000000000000000000000000000000000000000000000000006007611641565b60606109057f00000000000000000000000000000000000000000000000000000000000000006008611641565b80546000908015610ea757610e9183610d6e600184612499565b54600160301b90046001600160d01b0316610acb565b60009392505050565b6105b18282604051806020016040528060008152506116ec565b6001600160a01b038216610efc57604051630b61174360e31b81526001600160a01b03831660048201526024016105db565b6001600160a01b03838116600081815260056020908152604080832094871680845294825291829020805460ff191686151590811790915591519182527f17307eab39ab6107e8899845ad3d59bd9653f200f220920489ca2b5937696c31910160405180910390a3505050565b6001600160a01b0383163b1561108d57604051630a85bd0160e11b81526001600160a01b0384169063150b7a0290610fab9088908890879087906004016124bf565b6020604051808303816000875af1925050508015610fe6575060408051601f3d908101601f19168201909252610fe3918101906124fc565b60015b61104f573d808015611014576040519150601f19603f3d011682016040523d82523d6000602084013e611019565b606091505b50805160000361104757604051633250574960e11b81526001600160a01b03851660048201526024016105db565b805181602001fd5b6001600160e01b03198116630a85bd0160e11b1461108b57604051633250574960e11b81526001600160a01b03851660048201526024016105db565b505b5050505050565b60006104e56110a1611704565b8360405161190160f01b8152600281019290925260228201526042902090565b6000806000806110d38888888861182f565b9250925092506110e382826118fe565b50909695505050505050565b6001600160a01b038216600090815260096020526040902080546001810190915581811461069d576040516301d4b62360e61b81526001600160a01b0384166004820152602481018290526044016105db565b6060600061114f836119b7565b600101905060008167ffffffffffffffff81111561116f5761116f61229e565b6040519080825280601f01601f191660200182016040528015611199576020820181803683370190505b5090508181016020015b600019016f181899199a1a9b1b9c1cb0b131b232b360811b600a86061a8153600a85049450846111a357509392505050565b60006001600160e01b031982166380ac58cd60e01b148061120657506001600160e01b03198216635b5e139f60e01b145b806104e557506301ffc9a760e01b6001600160e01b03198316146104e5565b808061123957506001600160a01b03821615155b156112fb57600061124984610b4a565b90506001600160a01b038316158015906112755750826001600160a01b0316816001600160a01b031614155b801561128857506112868184610af7565b155b156112b15760405163a9fbf51f60e01b81526001600160a01b03841660048201526024016105db565b81156112f95783856001600160a01b0316826001600160a01b03167f8c5be1e5ebec7d5bd14f71427d1e84f3dd0314c0f7b2291e5b200ac8c7c3b92560405160405180910390a45b505b5050600090815260046020526040902080546001600160a01b0319166001600160a01b0392909216919091179055565b600080611339858585611a8f565b9050610b9d81866001611b88565b61135182826108d0565b6105b15760405163e2517d3f60e01b81526001600160a01b0382166004820152602481018390526044016105db565b60008160000361139257506000919050565b6000600161139f84611bfe565b901c6001901b905060018184816113b8576113b8612519565b048201901c905060018184816113d0576113d0612519565b048201901c905060018184816113e8576113e8612519565b048201901c9050600181848161140057611400612519565b048201901c9050600181848161141857611418612519565b048201901c9050600181848161143057611430612519565b048201901c9050600181848161144857611448612519565b048201901c9050610acb8182858161146257611462612519565b04611c92565b60005b818310156114c257600061147f8484611ca8565b60008781526020902090915065ffffffffffff86169082015465ffffffffffff1611156114ae578092506114bc565b6114b98160016124ac565b93505b5061146b565b509392505050565b60006104e5826107d8565b816001600160a01b0316836001600160a01b0316141580156114f75750600081115b1561069d576001600160a01b0383161561159f576001600160a01b0383166000908152600b60205260408120819061153a90611cc361153586611ccf565b611d03565b6001600160d01b031691506001600160d01b03169150846001600160a01b03167fdec2bacdd2f05b59de34da9b523dff8be42e5e38e818c82fdb0bae774387a7248383604051611594929190918252602082015260400190565b60405180910390a250505b6001600160a01b0382161561069d576001600160a01b0382166000908152600b6020526040812081906115d890611d3c61153586611ccf565b6001600160d01b031691506001600160d01b03169150836001600160a01b03167fdec2bacdd2f05b59de34da9b523dff8be42e5e38e818c82fdb0bae774387a7248383604051611632929190918252602082015260400190565b60405180910390a25050505050565b606060ff831461165b5761165483611d48565b90506104e5565b8180546116679061241a565b80601f01602080910402602001604051908101604052809291908181526020018280546116939061241a565b80156116e05780601f106116b5576101008083540402835291602001916116e0565b820191906000526020600020905b8154815290600101906020018083116116c357829003601f168201915b505050505090506104e5565b6116f68383611d87565b61069d336000858585610f69565b6000306001600160a01b037f00000000000000000000000000000000000000000000000000000000000000001614801561175d57507f000000000000000000000000000000000000000000000000000000000000000046145b1561178757507f000000000000000000000000000000000000000000000000000000000000000090565b610905604080517f8b73c3c69bb8fe3d512ecc4cf759cc79239f7b179b0ffacaa9a75d522b39400f60208201527f0000000000000000000000000000000000000000000000000000000000000000918101919091527f000000000000000000000000000000000000000000000000000000000000000060608201524660808201523060a082015260009060c00160405160208183030381529060405280519060200120905090565b600080807f7fffffffffffffffffffffffffffffff5d576e7357a4501ddfe92f46681b20a084111561186a57506000915060039050826118f4565b604080516000808252602082018084528a905260ff891692820192909252606081018790526080810186905260019060a0016020604051602081039080840390855afa1580156118be573d6000803e3d6000fd5b5050604051601f1901519150506001600160a01b0381166118ea575060009250600191508290506118f4565b9250600091508190505b9450945094915050565b60008260038111156119125761191261252f565b0361191b575050565b600182600381111561192f5761192f61252f565b0361194d5760405163f645eedf60e01b815260040160405180910390fd5b60028260038111156119615761196161252f565b036119825760405163fce698f760e01b8152600481018290526024016105db565b60038260038111156119965761199661252f565b036105b1576040516335e2f38360e21b8152600481018290526024016105db565b60008072184f03e93ff9f4daa797ed6e38ed64bf6a1f0160401b83106119f65772184f03e93ff9f4daa797ed6e38ed64bf6a1f0160401b830492506040015b6d04ee2d6d415b85acef81000000008310611a22576d04ee2d6d415b85acef8100000000830492506020015b662386f26fc100008310611a4057662386f26fc10000830492506010015b6305f5e1008310611a58576305f5e100830492506008015b6127108310611a6c57612710830492506004015b60648310611a7e576064830492506002015b600a83106104e55760010192915050565b6000828152600260205260408120546001600160a01b0390811690831615611abc57611abc818486611dec565b6001600160a01b03811615611afa57611ad9600085600080611225565b6001600160a01b038116600090815260036020526040902080546000190190555b6001600160a01b03851615611b29576001600160a01b0385166000908152600360205260409020805460010190555b60008481526002602052604080822080546001600160a01b0319166001600160a01b0389811691821790925591518793918516917fddf252ad1be2c89b69c2b068fc378daa952ba7f163c4a11628f55a4df523b3ef91a4949350505050565b6001600160a01b038316611baa57611ba7600c611d3c61153584611ccf565b50505b6001600160a01b038216611bcc57611bc9600c611cc361153584611ccf565b50505b6001600160a01b038381166000908152600a602052604080822054858416835291205461069d929182169116836114d5565b600080608083901c15611c1357608092831c92015b604083901c15611c2557604092831c92015b602083901c15611c3757602092831c92015b601083901c15611c4957601092831c92015b600883901c15611c5b57600892831c92015b600483901c15611c6d57600492831c92015b600283901c15611c7f57600292831c92015b600183901c156104e55760010192915050565b6000818310611ca15781610acb565b5090919050565b6000611cb76002848418612545565b610acb908484166124ac565b6000610acb8284612567565b60006001600160d01b03821115610ce6576040516306dfcc6560e41b815260d06004820152602481018390526044016105db565b600080611d2f611d116108fb565b611d27611d1d88610e77565b868863ffffffff16565b879190611e50565b915091505b935093915050565b6000610acb828461258e565b60606000611d5583611e5e565b604080516020808252818301909252919250600091906020820181803683375050509182525060208101929092525090565b6001600160a01b038216611db157604051633250574960e11b8152600060048201526024016105db565b6000611dbf83836000610b90565b90506001600160a01b0381161561069d576040516339e3563760e11b8152600060048201526024016105db565b611df7838383611e86565b61069d576001600160a01b038316611e2557604051637e27328960e01b8152600481018290526024016105db565b60405163177e802f60e01b81526001600160a01b0383166004820152602481018290526044016105db565b600080611d2f858585611ee9565b600060ff8216601f8111156104e557604051632cd44ac360e21b815260040160405180910390fd5b60006001600160a01b03831615801590610b9d5750826001600160a01b0316846001600160a01b03161480611ec05750611ec08484610af7565b80610b9d5750506000908152600460205260409020546001600160a01b03908116911614919050565b825460009081908015611ff9576000611f0787610d6e600185612499565b805490915065ffffffffffff80821691600160301b90046001600160d01b0316908816821115611f4a57604051632520601d60e01b815260040160405180910390fd5b8765ffffffffffff168265ffffffffffff1603611f9a5786611f718a610d6e600188612499565b80546001600160d01b0392909216600160301b0265ffffffffffff909216919091179055611feb565b6040805180820190915265ffffffffffff808a1682526001600160d01b03808a1660208085019182528d54600181018f5560008f81529190912094519151909216600160301b029216919091179101555b9450859350611d3492505050565b50506040805180820190915265ffffffffffff80851682526001600160d01b0380851660208085019182528854600181018a5560008a815291822095519251909316600160301b029190931617920191909155905081611d34565b6001600160e01b031981168114610baf57600080fd5b60006020828403121561207c57600080fd5b8135610acb81612054565b60005b838110156120a257818101518382015260200161208a565b50506000910152565b600081518084526120c3816020860160208601612087565b601f01601f19169290920160200192915050565b602081526000610acb60208301846120ab565b6000602082840312156120fc57600080fd5b5035919050565b80356001600160a01b038116811461211a57600080fd5b919050565b6000806040838503121561213257600080fd5b61213b83612103565b946020939093013593505050565b60008060006060848603121561215e57600080fd5b61216784612103565b925061217560208501612103565b9150604084013590509250925092565b6000806040838503121561219857600080fd5b823591506121a860208401612103565b90509250929050565b6000602082840312156121c357600080fd5b610acb82612103565b60ff60f81b881681526000602060e0818401526121ec60e084018a6120ab565b83810360408501526121fe818a6120ab565b606085018990526001600160a01b038816608086015260a0850187905284810360c0860152855180825283870192509083019060005b8181101561225057835183529284019291840191600101612234565b50909c9b505050505050505050505050565b6000806040838503121561227557600080fd5b61227e83612103565b91506020830135801515811461229357600080fd5b809150509250929050565b634e487b7160e01b600052604160045260246000fd5b600080600080608085870312156122ca57600080fd5b6122d385612103565b93506122e160208601612103565b925060408501359150606085013567ffffffffffffffff8082111561230557600080fd5b818701915087601f83011261231957600080fd5b81358181111561232b5761232b61229e565b604051601f8201601f19908116603f011681019083821181831017156123535761235361229e565b816040528281528a602084870101111561236c57600080fd5b82602086016020830137600060208483010152809550505050505092959194509250565b60008060008060008060c087890312156123a957600080fd5b6123b287612103565b95506020870135945060408701359350606087013560ff811681146123d657600080fd5b9598949750929560808101359460a0909101359350915050565b6000806040838503121561240357600080fd5b61240c83612103565b91506121a860208401612103565b600181811c9082168061242e57607f821691505b60208210810361244e57634e487b7160e01b600052602260045260246000fd5b50919050565b60008351612466818460208801612087565b83519083019061247a818360208801612087565b01949350505050565b634e487b7160e01b600052601160045260246000fd5b818103818111156104e5576104e5612483565b808201808211156104e5576104e5612483565b6001600160a01b03858116825284166020820152604081018390526080606082018190526000906124f2908301846120ab565b9695505050505050565b60006020828403121561250e57600080fd5b8151610acb81612054565b634e487b7160e01b600052601260045260246000fd5b634e487b7160e01b600052602160045260246000fd5b60008261256257634e487b7160e01b600052601260045260246000fd5b500490565b6001600160d01b0382811682821603908082111561258757612587612483565b5092915050565b6001600160d01b038181168382160190808211156125875761258761248356fea26469706673582212201ce85355c9bdb0c81517fde707a4bf50631829d5ee2a5115650750455dbce84564736f6c63430008140033",
		"linkReferences": {}
	},
	"methodIdentifiers": {
		"CLOCK_MODE()": "4bf5d7e9",
		"DEFAULT_ADMIN_ROLE()": "a217fddf",
		"MINTER_ROLE()": "d5391393",
		"approve(address,uint256)": "095ea7b3",
		"balanceOf(address)": "70a08231",
		"burn(uint256)": "42966c68",
		"clock()": "91ddadf4",
		"delegate(address)": "5c19a95c",
		"delegateBySig(address,uint256,uint256,uint8,bytes32,bytes32)": "c3cda520",
		"delegates(address)": "587cde1e",
		"eip712Domain()": "84b0196e",
		"getApproved(uint256)": "081812fc",
		"getPastTotalSupply(uint256)": "8e539e8c",
		"getPastVotes(address,uint256)": "3a46b1a8",
		"getRoleAdmin(bytes32)": "248a9ca3",
		"getVotes(address)": "9ab24eb0",
		"grantRole(bytes32,address)": "2f2ff15d",
		"hasRole(bytes32,address)": "91d14854",
		"isApprovedForAll(address,address)": "e985e9c5",
		"name()": "06fdde03",
		"nonces(address)": "7ecebe00",
		"ownerOf(uint256)": "6352211e",
		"renounceRole(bytes32,address)": "36568abe",
		"revokeRole(bytes32,address)": "d547741f",
		"safeMint(address,uint256)": "a1448194",
		"safeTransferFrom(address,address,uint256)": "42842e0e",
		"safeTransferFrom(address,address,uint256,bytes)": "b88d4fde",
		"setApprovalForAll(address,bool)": "a22cb465",
		"supportsInterface(bytes4)": "01ffc9a7",
		"symbol()": "95d89b41",
		"tokenURI(uint256)": "c87b56dd",
		"transferFrom(address,address,uint256)": "23b872dd"
	},
	"id": 55
}